{
    "contractName": "FactoryDao",
    "abi": [
        {
            "inputs": [],
            "stateMutability": "nonpayable",
            "type": "constructor"
        },
        {
            "inputs": [],
            "name": "newWallet",
            "outputs": [
                {
                    "internalType": "address payable",
                    "name": "wallet",
                    "type": "address"
                }
            ],
            "stateMutability": "nonpayable",
            "type": "function"
        },
        {
            "inputs": [],
            "name": "walletImplementation",
            "outputs": [
                {
                    "internalType": "address payable",
                    "name": "",
                    "type": "address"
                }
            ],
            "stateMutability": "view",
            "type": "function"
        }
    ],
    "bytecode": "60a08060405234607857610ea98181016001600160401b038111838210176064578291610275833903905ff080156059576001600160a01b03166080526040516101f8908161007d823960805181818160490152609d0152f35b6040513d5f823e3d90fd5b634e487b7160e01b5f52604160045260245ffd5b5f80fdfe6080806040526004361015610012575f80fd5b5f905f3560e01c9081634a8671f11461007b5750638117abc114610034575f80fd5b346100785780600319360112610078576040517f00000000000000000000000000000000000000000000000000000000000000006001600160a01b03168152602090f35b80fd5b34610183575f366003190112610183576e5af43d82803e903d91602b57fd5bf37f0000000000000000000000000000000000000000000000000000000000000000763d602d80600a3d3981f3363d3d373d3d3d363d7300000062ffffff8260881c16175f526effffffffffffffffffffffffffffff199060781b161760205260018060a01b03603760095ff0169081156101875750803b156101835760405163189acdbd60e31b8152336004820152905f8260248183855af180156101785761014a575b602090604051908152f35b67ffffffffffffffff82116101645760209160405261013f565b634e487b7160e01b5f52604160045260245ffd5b6040513d5f823e3d90fd5b5f80fd5b62461bcd60e51b8152602060048201526016602482015275115490cc4c4d8dce8818dc99585d194819985a5b195960521b6044820152606490fdfea2646970667358221220d2d82c146761f0900d3179d2f6f5cf9be0669d6db192c84fcf82e1290ef8aa2e64736f6c634300081f00336080806040523460ce57603580546001600160a01b031916331790555f5490600882901c60ff16607c575060ff808216036043575b604051610dd690816100d38239f35b60ff90811916175f557f7f26b83ff96e1f2b6a682f133852f6798a09c465da95921460cefb3847402498602060405160ff8152a15f6034565b62461bcd60e51b815260206004820152602760248201527f496e697469616c697a61626c653a20636f6e747261637420697320696e697469604482015266616c697a696e6760c81b6064820152608490fd5b5f80fdfe6080604052600436101561001a575b3615610018575f80fd5b005b5f3560e01c80631b99e58a1461072e5780637ecebe00146106f657806384b0196e146104b65780638da5cb5b1461048e578063c4d66de8146100865763ed24911d0361000e5734610082575f36600319011261008257602061007a610b58565b604051908152f35b5f80fd5b346100825760203660031901126100825761009f610a48565b5f549060ff8260081c161591828093610481575b801561046a575b1561040e5760ff1981166001175f55826103fd575b506040908151926100e08385610a5e565b600984526811185bd5d85b1b195d60ba1b60208501528251936101038486610a5e565b60038552620312e360ec1b602086015261012c60ff5f5460081c1661012781610af8565b610af8565b80519067ffffffffffffffff82116102fb57819061014b600354610ac0565b601f811161038b575b50602090601f831160011461031a575f9261030f575b50508160011b915f199060031b1c1916176003555b835167ffffffffffffffff81116102fb5761019b600454610ac0565b601f8111610293575b50602094601f8211600114610225579481929394955f9261021a575b50508160011b915f199060031b1c1916176004555b5f6001555f600255815f556101e657005b61ff0019165f5551600181527f7f26b83ff96e1f2b6a682f133852f6798a09c465da95921460cefb384740249890602090a1005b0151905085806101c0565b601f1982169560045f525f516020610d815f395f51905f52915f5b88811061027b57508360019596979810610263575b505050811b016004556101d5565b01515f1960f88460031b161c19169055858080610255565b91926020600181928685015181550194019201610240565b60045f52601f820160051c5f516020610d815f395f51905f520190602083106102e6575b601f0160051c5f516020610d815f395f51905f5201905b8181106102db57506101a4565b5f81556001016102ce565b5f516020610d815f395f51905f5291506102b7565b634e487b7160e01b5f52604160045260245ffd5b01519050868061016a565b60035f9081525f516020610d615f395f51905f529350601f198516905b818110610373575090846001959493921061035b575b505050811b0160035561017f565b01515f1960f88460031b161c1916905586808061034d565b92936020600181928786015181550195019301610337565b90915060035f52601f830160051c5f516020610d615f395f51905f520190602084106103e8575b90601f8493920160051c5f516020610d615f395f51905f5201905b8181106103da5750610154565b5f81558493506001016103cd565b5f516020610d615f395f51905f5291506103b2565b61ffff1916610101175f55826100cf565b60405162461bcd60e51b815260206004820152602e60248201527f496e697469616c697a61626c653a20636f6e747261637420697320616c72656160448201526d191e481a5b9a5d1a585b1a5e995960921b6064820152608490fd5b50303b1580156100ba5750600160ff8216146100ba565b50600160ff8216106100b3565b34610082575f366003190112610082576035546040516001600160a01b039091168152602090f35b34610082575f3660031901126100825760015415806106ec575b156106af57604051600354815f6104e683610ac0565b80835292600181169081156106905750600114610644575b61050a92500382610a5e565b604051600454815f61051b83610ac0565b808352926001811690811561062557506001146105d9575b6105469192509261057d94930382610a5e565b602061058b604051926105598385610a5e565b5f84525f368137604051958695600f60f81b875260e08588015260e0870190610a9c565b908582036040870152610a9c565b4660608501523060808501525f60a085015283810360c08501528180845192838152019301915f5b8281106105c257505050500390f35b8351855286955093810193928101926001016105b3565b5060045f90815290915f516020610d815f395f51905f525b81831061060957505090602061054692820101610533565b60209193508060019154838588010152019101909183926105f1565b6020925061054694915060ff191682840152151560051b820101610533565b5060035f90815290915f516020610d615f395f51905f525b81831061067457505090602061050a928201016104fe565b602091935080600191548385880101520191019091839261065c565b6020925061050a94915060ff191682840152151560051b8201016104fe565b60405162461bcd60e51b81526020600482015260156024820152741152540dcc4c8e88155b9a5b9a5d1a585b1a5e9959605a1b6044820152606490fd5b50600254156104d0565b34610082576020366003190112610082576001600160a01b03610717610a48565b165f526037602052602060405f2054604051908152f35b60e03660031901126100825760043560ff8116809103610082576064356001600160a01b03811691908281036100825760a43560843567ffffffffffffffff821161008257366023830112156100825781600401359461078d86610a80565b9561079b6040519788610a5e565b8087526020870193366024838301011161008257815f9260246020930187378801015260c43542811115610a03576035546001600160a01b03165f908152603760205260409020805491905f1983146109ef5760209361084e6108678b8660809660429660015f9a0190556040519485938b8501977fad39d6c42b81c483761134921e6eb96ef83bda40a2e39f097e92e511af38d0af895260408601528c606086015260c08a86015260e0850190610a9c565b9160a084015260c083015203601f198101835282610a5e565b519020610872610b58565b906040519161190160f01b835260028301526022820152209660405190888252848201526024356040820152604435606082015282805260015afa156109e4575f516035546001600160a01b0390811691160361099f57835f52603660205260ff60405f20541661095b575f9485948552603660205260408520600160ff1982541617905551925af13d15610953573d9061090c82610a80565b9161091a6040519384610a5e565b82523d5f602084013e5b1561092b57005b60405162461bcd60e51b81526020600482015290819061094f906024830190610a9c565b0390fd5b606090610924565b606460405162461bcd60e51b815260206004820152602060248201527f5369676e61747572652068617320616c7265616479206265656e2075736564216044820152fd5b60405162461bcd60e51b815260206004820152601760248201527f4f6e6c79206f776e65722063616e2065786563757465210000000000000000006044820152606490fd5b6040513d5f823e3d90fd5b634e487b7160e01b5f52601160045260245ffd5b60405162461bcd60e51b815260206004820152601960248201527f457865637574696f6e2077696e646f77206578706972656421000000000000006044820152606490fd5b600435906001600160a01b038216820361008257565b90601f8019910116810190811067ffffffffffffffff8211176102fb57604052565b67ffffffffffffffff81116102fb57601f01601f191660200190565b805180835260209291819084018484015e5f828201840152601f01601f1916010190565b90600182811c92168015610aee575b6020831014610ada57565b634e487b7160e01b5f52602260045260245ffd5b91607f1691610acf565b15610aff57565b60405162461bcd60e51b815260206004820152602b60248201527f496e697469616c697a61626c653a20636f6e7472616374206973206e6f74206960448201526a6e697469616c697a696e6760a81b6064820152608490fd5b610b60610bbf565b610b68610ca2565b6040519060208201927f8b73c3c69bb8fe3d512ecc4cf759cc79239f7b179b0ffacaa9a75d522b39400f8452604083015260608201524660808201523060a082015260a08152610bb960c082610a5e565b51902090565b604051600354905f81610bd184610ac0565b9182825260208201946001811690815f14610c865750600114610c3a575b610bfb92500382610a5e565b51908115610c07572090565b50506001548015610c155790565b507fc5d2460186f7233c927e7db2dcc703c0e500b653ca82273b7bfad8045d85a47090565b5060035f90815290915f516020610d615f395f51905f525b818310610c6a575050906020610bfb92820101610bef565b6020919350806001915483858801015201910190918392610c52565b60ff1916865250610bfb92151560051b82016020019050610bef565b604051600454905f81610cb484610ac0565b9182825260208201946001811690815f14610d445750600114610cf8575b610cde92500382610a5e565b51908115610cea572090565b50506002548015610c155790565b5060045f90815290915f516020610d815f395f51905f525b818310610d28575050906020610cde92820101610cd2565b6020919350806001915483858801015201910190918392610d10565b60ff1916865250610cde92151560051b82016020019050610cd256fec2575a0e9e593c00f959f8c92f12db2869c3395a3b0502d05e2516446f71f85b8a35acfbc15ff81a39ae7d344fd709f28e8600b4aa8c65c6b64bfe7fe36bd19ba264697066735822122022bd39f1872638a3ea191715bdce22d8b5db085d28f9221251aa506c2b54576964736f6c634300081f0033",
    "sourcePath": "/home/boshlike/Documents/Code/AMAZEX-DSS-PARIS/src/7_crystalDAO/crystalDAO.sol",
    "compiler": {
        "name": "solc",
        "version": "0.8.31+commit.fd3a2265"
    },
    "functionHashes": {
        "newWallet()": "4a8671f1",
        "walletImplementation()": "8117abc1"
    },
    "gasEstimates": {
        "creation": {
            "codeDepositCost": "100800",
            "executionCost": "infinite",
            "totalCost": "infinite"
        },
        "external": {
            "newWallet()": "infinite",
            "walletImplementation()": "infinite"
        }
    }
}